:020000040800F2
:10000000804F0020F1050008C9030008CB03000859
:10001000CF030008D3030008D70300080000000046
:10002000000000000000000000000000DB030008EA
:10003000DD03000800000000DF030008993D000810
:100040000B0600080B0600080B0600080B0600084C
:100050000B0600080B0600080B0600080B0600083C
:100060000B0600080B0600080B0600080B0600082C
:100070000B0600080B0600080B0600080B0600081C
:100080000B0600080B060008754400080B06000864
:100090000B0600080B0600080B0600080B060008FC
:1000A0000B0600080B0600080B0600080B060008EC
:1000B0000B0600080B0600088F3A00080B06000824
:1000C0000B0600080B0600080B0600080B060008CC
:1000D0000B0600080B0600080B060008DF6E000880
:1000E0003B7100080B0600080B0600080B06000811
:1000F0000B0600080B0600080B0600080B0600089C
:100100000B0600080B060008A73A00080B060008BB
:100110000B0600080B0600080B0600080B0600087B
:100120000B0600080B0600080B0600080B0600086B
:100130000B0600080B0600080B0600080B0600085B
:100140000B0600080B0600080B0600080B0600084B
:100150000B0600080B0600084F5000080B060008AD
:100160000B0600080B0600080B0600080B0600082B
:100170000B0600080B0600080B0600080B0600081B
:100180000B0600080B060008DFF810D009F02CFB66
:100190000048004757020008AFF30080804F00205E
:1001A0001CB50121084601F0EDFF0121022001F0FC
:1001B000E9FF0121042001F0E5FF0121082001F001
:1001C000E1FF0121802001F0DDFF4FF4805000901D
:1001D00001208DF8040000208DF806008DF807003E
:1001E00002208DF805006946604801F0E1FA4FF4FD
:1001F00080515E4801F058FB4FF480600090012070
:100200008DF8040000208DF806008DF8070002200C
:100210008DF805006946564801F0CAFA4FF480612E
:10022000534801F043FB4FF40040009001208DF84B
:10023000040000208DF806008DF8070002208DF8DC
:10024000050069464B4801F0B3FA4FF400414948B4
:1002500001F02AFB1CBD2DED028B82B0FFF7A0FF41
:1002600003F0DAFB03F090FF03F0D2FF04F03CF858
:1002700004F09DF805F094F83F4804F028FE04F0DF
:10028000AFFF05F065F83D4803F0FEFE06F066FCA2
:1002900005F024FA08F014F801203849487208F0F3
:1002A000A5FA17E0364890ED0A0A10EE101A084633
:1002B00009F087F841EC180B8DED008B3048B0F950
:1002C00034103048B0F900302F48B0F900202FA08A
:1002D00004F096FEE6E7704710B52DED028B30482E
:1002E000006801283BD100202D4908602D48007886
:1002F00052280ED004DC482807D050282AD126E006
:10030000562815D0592825D10CE027A009F0B0FCBB
:1003100020E0032028490870012028490860284966
:10032000086017E00120254908602549086011E0B0
:100330001C48401C09F0DCFCB0EE408AF0EE608AFC
:1003400051EC180B09F080F81E49086002E003F038
:1003500033F900BF00BF1021124808F086FEBDEC43
:10036000028B10BD72B600BFFEE700000004024021
:10037000000C02400008024000941100F808002020
:100380000C0B00204E0200204C020020414E474C36
:10039000453A25642C25642C25642C25660A00002A
:1003A000DC0000209E03002068656C6C6F2077697C
:1003B0006E646F77730D0A00EC000020A00400202B
:1003C000EC0500200C010020704700BFFEE700BFD5
:1003D000FEE700BFFEE700BFFEE7704770477047CB
:1003E0000CB50020019000907648006840F4803001
:1003F0007449086000BF7348006800F40030009042
:100400000198401C0190009818B90198B0F5A04FD0
:10041000F1D16C48006800F4003010B10120009068
:1004200001E0002000900098012846D16548403046
:10043000006840F0805063494031086062480068BD
:1004400040F44040604908605E48083000685D49FB
:10045000083108600846006840F40040086008461B
:10046000006840F4A05008605848091F0860081F41
:10047000006840F08070091F086000BF51480068A4
:1004800000F000700028F9D040F205705049086073
:100490004C480830006820F003004A4908310860E1
:1004A0000846006840F00200086000BF4548083078
:1004B000006800F00C000828F8D10CBD10B54548C4
:1004C000006840F47000434908603E48006840F00E
:1004D00001003C49086000203A4908310860394869
:1004E00000683D490840374908603C48091D0860DC
:1004F000081F006820F48020091F0860002031498F
:100500000C310860FFF76CFF4FF000603149803913
:10051000086010BD70B500200022022300240221D3
:10052000284D08352D6805F00C0020B1042806D0B0
:10053000082834D107E02A4D2A4E356033E02A4D91
:10054000284E35602FE01F4D2D1D2D68C5F38054BA
:100550001C4D2D1D2D6805F03F0154B1224DB5FBFA
:10056000F1F5184E361D3668C6F3881605FB06F2FF
:1005700009E01B4DB5FBF1F5124E361D3668C6F38A
:10058000881605FB06F20F4D2D1D2D68C5F301459C
:100590006D1C6B00B2FBF3F5124E356003E0104D9D
:1005A000104E356000BF00BF064D08352D68C5F3FD
:1005B00003150E4E705D0B4D2D68C540094E35601C
:1005C00070BD00000038024000700040042A400A5C
:1005D000003C024088ED00E0FFFFF6FE10300024F2
:1005E0000024F4001C00002000127A0020000020EB
:1005F0000648804706480047FEE7FEE7FEE7FEE7BD
:10060000FEE7FEE7FEE7FEE7FEE7FEE7BD040008C3
:100610008901000832490143324A1160704770B5C0
:10062000002100230F22C4781CB32E4C246804F44C
:10063000E064C4F5E064C4F30721C1F10404E3B24B
:100640000A4144789C40E1B28478144021430C076D
:10065000210E254C05786155047804F01F0501240E
:10066000AC4005786D11AD0005F1E025C5F80041FD
:1006700009E0047804F01F050124AC401B4D067806
:10068000761145F8264070BD194A0A400243154BC1
:100690001B1F1A60704739B1124A121D12680243BB
:1006A000104B1B1D1A6006E00E4A121D1268824391
:1006B0000C4B1B1D1A607047042808D14FF0E02135
:1006C000096941F004014FF0E022116107E04FF0A9
:1006D000E021096921F004014FF0E0221161704727
:1006E0000000FA050CED00E000E400E080E100E02D
:1006F00080FFFF1F10B50121080201F0F2FD00216B
:100700004FF4807001F0EDFD10BD30B502460020C1
:1007100000235068F84C20400D790C6844EA052409
:10072000204350609068F54C2040D1E903542C439D
:100730008D682C434D7944EA450420439060D06A8B
:1007400020F470000C7D641EE4B2234340EA0350A1
:10075000D06230BD00210160017141718160C160D2
:1007600001610121017570470021E54A1168E54AE0
:100770001140D0E900231A4383681A43C3681A431F
:100780001143E14AC2F8041370470021016041603F
:100790008160C160704721B1826842F001028260CD
:1007A00003E0826822F00102826070470A4600215D
:1007B0004168D64B194011434160704741628262E3
:1007C00070470A460021416821F01F011143416032
:1007D000704738B1CA49096841F40001CA4AC2F8F1
:1007E000041306E0C649096821F40001C64AC2F8AC
:1007F0000413704738B1C249096841F48001C24A04
:10080000C2F8041306E0BE49096821F48001BE4A1B
:10081000C2F804137047F0B504460D4600200021CD
:10082000092D11DDE068A5F10A0606EB460707264B
:1008300006FA07F18843A5F10A0606EB460603FA15
:1008400006F10843E0600CE0206905EB4507072648
:1008500006FA07F1884305EB450603FA06F108435B
:100860002061072A0FDA606B561E06EB86071F26EB
:1008700006FA07F18843561E06EB860605FA06F1CE
:100880000843606322E00D2A0FDA206BD61F06EBC7
:1008900086071F2606FA07F18843D61F06EB860651
:1008A00005FA06F10843206310E0E06AA2F10D06A4
:1008B00006EB86071F2606FA07F18843A2F10D060C
:1008C00006EB860605FA06F10843E062F0BD816892
:1008D00041F0804181607047014600208A6802F043
:1008E00080420AB1012000E00020704721B18268F7
:1008F00042F48062826003E0826822F48062826057
:10090000704721B1826842F00202826003E082688F
:1009100022F002028260704710B50A4600210023CF
:10092000416821F46041531E41EA4331416010BDEA
:1009300021B1426842F40062426003E0426822F45E
:100940000062426070470146C86C80B270476C48D4
:10095000001D0068704721B1826842F48072826095
:1009600003E0826822F480728260704721B182685D
:1009700042F40072826003E0826822F400728260B6
:10098000704738B15E49096841F400515E4AC2F8C7
:10099000041306E05A49096821F400515A4AC2F882
:1009A00004137047F0B504461546002000220026C7
:1009B000092911DDE068A1F10A0707EB470C0727B9
:1009C00007FA0CF29043A1F10A0707EB470703FA75
:1009D00007F21043E0600CE0206901EB410C0727AF
:1009E00007FA0CF2904301EB410703FA07F21043B8
:1009F0002061A06BC0F30156EF1C06F1010CA7EBC0
:100A00000C0707EB870C1F2707FA0CF29043EF1C2B
:100A100006F1010CA7EB0C0707EB870701FA07F2B9
:100A20001043A063F0BD10B50A4600210023816B7E
:100A300021F44011531E41EA0351816310BD08B5F2
:100A4000002300930090009B0B440093009B1A60CE
:100A500008BD0A460021816821F47021114381609C
:100A600070470A460021816821F4401111438160DA
:100A70007047816841F48001816070470146002021
:100A80008A6802F480020AB1012000E00020704769
:100A900021B1426842F48062426003E0426822F47D
:100AA00080624260704721B1426842F480524260E5
:100AB00003E0426822F480524260704708B5024663
:100AC00000200090009201F12800009B1844009043
:100AD0000098006880B208BD10B50B460021D9B25D
:100AE000012404FA01F11AB144680C43446002E0A5
:100AF00044688C43446010BDFFFEFFFCFDF7FFC05F
:100B000004230140E030FCFF00200140FFFD3FFFD7
:100B10000246002013680B400BB1012000E00020CA
:100B20007047CA430260704770B502460020002338
:100B300000240B12556801268E4005EA060415684C
:100B40001D4015B10CB1012000E0002070BD002255
:100B50000A12D34303607047016821F0010101606C
:100B60000021016041608160C1600161212141611A
:100B7000DB49884204D13D21D94A103A91608CE08A
:100B8000D7491831884205D14FF47461D44A103ADC
:100B9000916082E0D2493031884205D14FF474111E
:100BA000CF4A103A916078E0CD494831884205D16A
:100BB0004FF07461CA4A103A91606EE0C8496031E2
:100BC000884204D1C749C64A103AD16065E0C44999
:100BD0007831884204D1C449C14A103AD1605CE0FE
:100BE000BF499031884204D1C049BD4A103AD16012
:100BF00053E0BB49A831884205D14FF03D51B84A76
:100C0000103AD16049E0BA49884204D13D21B84A3E
:100C1000083A116041E0B6491831884205D14FF4D5
:100C20007461B34A083A116037E0B1493031884203
:100C300005D14FF47411AE4A083A11602DE0AC4969
:100C40004831884205D14FF07461A94A083A1160D1
:100C500023E0A7496031884204D1A249A44A121F67
:100C600011601AE0A2497831884204D19E49A04A15
:100C7000121F116011E09E499031884204D19B49B6
:100C80009B4A121F116008E09949A831884204D19B
:100C90004FF03D51964A121F1160704710B5002267
:100CA0000268944B1A40CC680B6823434C69234379
:100CB0008C692343CC6923430C6A23434C6A234346
:100CC0008C6A23434C6B23438C6B23431A4302608F
:100CD000426922F00702D1E90B3423431A434261EF
:100CE0000B6943604B6883608B68C36010BD002153
:100CF000016041608160C160016141618161C161E8
:100D0000016241628162C162016341638163704734
:100D100021B1026842F00102026003E0026822F0A1
:100D200001020260704721B1026842F40042026091
:100D300003E0026822F400420260704721B10268B9
:100D400042F02002026003E0026822F0200202600A
:100D50007047416070470146486880B2704722B1D1
:100D6000036843F40023036003E0036823F40023D3
:100D700003600161704721B1026842F48022026081
:100D800003E0026822F48022026070470AB1016128
:100D900000E0C1607047014600200A6802F40022AA
:100DA0000AB1012000E000207047014600200A68D7
:100DB00002F001020AB1012000E000207047014664
:100DC00000204A6902F03800704730B503460A46F1
:100DD00000200024464DAB4202D24149103901E0C7
:100DE0004349103902F000550DB14C6800E00C6821
:100DF000414D2C4004EA02050DB1012000E0002025
:100E000030BD02463A4B9A4202D23548103801E0D2
:100E10003748103801F000531BB1374B0B40C3600B
:100E200002E0354B0B408360704710B501F0800342
:100E30004BB122B1436943F08003436103E043694E
:100E400023F08003436180290BD02AB1036801F0AD
:100E50001E042343036004E0036801F01E04A3435F
:100E6000036010BD70B50246002000240025204E0E
:100E7000B24202D21A4B103B01E01D4B103B1F4EF9
:100E80000E4036B11E2606EAD124166806EA04058D
:100E900002E0566906F0800501F000560EB15C686C
:100EA00000E01C68144E344004EA010616B10DB18E
:100EB000012000E0002070BD02460D4B9A4202D294
:100EC0000748103801E00A48103801F000531BB100
:100ED000094B0B40C36002E0074B0B408360704737
:100EE000106002403D000020400F002000003D2027
:100EF000106402403F801CF07D0F7D0F3C0F3C0FC3
:100F0000002041490860091D0860091D0860091D8D
:100F100008603E483C4914310860704700213A4956
:100F20008279002A3AD00A46126803689A430B462F
:100F30001A600A1D126803689A430B1D1A60027931
:100F400011440A6803681A430A602F4A083212687B
:100F500003689A432C4B08331A601A1D1268036801
:100F60009A43294B0C331A604279102A0ED11A1F6A
:100F7000126803681A43244B08331A601A1D12685A
:100F800003681A43204B0C331A600DE01E49427966
:100F900011440A6803681A430A6005E002791144A3
:100FA0000A6803689A430A60704700210160017172
:100FB0000C2141710021817170471349103109687A
:100FC0000143114A103211607047014600200E4A59
:100FD000143212680A400AB1012000E00020704774
:100FE000094914310860704701460020064A14324E
:100FF00012680A400AB1012000E00020704702494F
:101000001431086070470000003C0140FFFF7F0082
:10101000FE4A1070704730B1FC49096841F4807194
:10102000FA4A116005E0F949096821F48071F74A2C
:101030001160704730B1F549096841F40071F34A15
:10104000116005E0F149096821F40071EF4A11606F
:10105000704730B1ED49096841F48061EB4A116095
:1010600005E0EA49096821F48061E84A11607047A7
:10107000E648006840F40060E44908607047E348CF
:10108000006840F48050E14908607047DF48103044
:10109000006800F0004028B1DD48DC49091D086007
:1010A000DC4808607047D9481030006840F00040C4
:1010B000D6491031086070470920D4490C310968BD
:1010C00001F48031B1F5803F01D1012020E0CF490A
:1010D0000C31096801F0100109B1062018E0CB4974
:1010E0000C31096801F4807109B1022010E0C74990
:1010F0000C31096801F0EF0109B1072008E0C3498C
:101100000C31096801F0020109B1082000E0092052
:10111000704708B509200090FFF7CEFF009002E06D
:10112000FFF7CAFF00909DF800000128F8D09DF855
:10113000000008BD70B504460A460026092502B91C
:1011400009E0012A01D1160205E0022A01D11602A6
:1011500001E04FF44076FFF7DCFF0546092D2DD165
:10116000AA481030006820F44070A8491031086087
:1011700008460068304308600846006820F0F80020
:1011800008600846006844F0020108439F49103196
:1011900008600846006840F480300860FFF7B9FF37
:1011A00005469A481030006820F002009749103137
:1011B00008600846006820F0F8000860284670BD06
:1011C00030B5024600250924FFF7A3FF044602B903
:1011D00009E0012A01D1150205E0022A01D1150218
:1011E00001E04FF44075092C20D188481030006888
:1011F00020F4407085491031086008460068284393
:1012000008600846006840F004000860084600686E
:1012100040F480300860FFF77CFF04467B481030C4
:10122000006820F00400794910310860204630BD84
:1012300030B5024600250924FFF76BFF044602B9CA
:1012400009E0012A01D1150205E0022A01D11502A7
:1012500001E04FF44075092C20D16C481030006833
:1012600020F440706949103108600846006828433E
:1012700008600846006840F00400086008460068FE
:1012800040F480300860FFF744FF04465F481030A8
:10129000006820F004005D4910310860204630BD30
:1012A00030B5024600250924FFF733FF044602B992
:1012B00009E0012A01D1150205E0022A01D1150237
:1012C00001E04FF44075092C20D1504810300068DF
:1012D00020F440704D4910310860084600682843EA
:1012E00008600846006840F400400860084600684E
:1012F00040F480300860FFF70CFF0446434810308C
:10130000006820F40040414910310860204630BD9B
:1013100070B5064614461D460922FFF7FAFE02463E
:10132000092A1ED139481030006820F4407037492E
:10133000103108600846006840F4407008600846B4
:10134000006840F00100086034607560FFF7E1FE5E
:1013500002462E481030006820F001002B49103161
:101360000860104670BD30B502460C460925FFF7EF
:10137000D0FE0546092D1DD124481030006820F408
:1013800040702249103108600846006840F400703F
:1013900008600846006840F0010008601460FFF72C
:1013A000B8FE054619481030006820F001001749C2
:1013B00010310860284630BD30B502460C4609257C
:1013C000FFF7A7FE0546092D1DD110481030006813
:1013D00020F440700D49103108600846006840F460
:1013E000807008600846006840F0010008601480C2
:1013F000FFF78FFE054605481030006820F0010019
:10140000024910310860284630BD0000003C02400F
:1014100023016745AB89EFCD30B502460C4609255F
:10142000FFF777FE0546092D17D19B48006820F489
:1014300040709949086008460068086008460068DE
:1014400040F0010008601470FFF763FE0546924803
:10145000006820F0010090490860284630BD8E48A1
:10146000001D006800F0010028B18C488A49083945
:1014700008608B48086070478748001D006840F08E
:1014800001008549091D0860704730B502460C46C9
:101490000925FFF73EFE0546092D10D13CB17E48D7
:1014A000801D008890437C49891D088007E07A48A8
:1014B000801D008891B208437749891D088030BD9E
:1014C00030B502460C460925FFF723FE0546092DD7
:1014D00010D13CB170480A30008890436E490A31FF
:1014E000088007E06C480A30008891B208436A49D6
:1014F0000A31088030BDFF21674AD21D127802F000
:101500007F0140EA0102644BDB1D1A70704730B561
:1015100002460C460925FFF7FCFD0546092D10D1B2
:1015200044B15D48801D008891B208435A49891D25
:10153000088006E05848801D008890435649891D60
:10154000088030BD30B502460C460925FFF7E1FDA5
:101550000546092D10D144B14F480A30008891B298
:1015600008434D490A31088006E04B480A3000889C
:10157000904349490A31088030BD10B5024609241C
:10158000FFF7C7FD0446092C02D14348401D0270F5
:1015900010BDF0B504460D46FF260927FFF7B9FD3B
:1015A0000746092F0BD13C48001D007800F00F06BC
:1015B00045EA0600104320433749091D0870F0BD75
:1015C0003549091D097821F01001334A121D1170A7
:1015D000114609780143117070472F49091D097898
:1015E00021F00C012C4A121D11701146097801439B
:1015F0001170704700B509222748001D007840F09F
:1016000002002549091D0870FFF783FD02461046B8
:1016100000BD2148001D0068C0F3471070471E48F8
:10162000801D008870471C480A30008870471A489F
:10163000801D0088704718480A30008870470020D5
:101640001549491D0978AA2901D0012000E0002090
:1016500070471148001D007800F00C00704729B158
:101660000D4A126802430C4B1A6004E00A4A1268E1
:101670008243094B1A60704701460020064A121F38
:1016800012680A400AB1012000E0002070470249B8
:10169000091F086070470000103C02403B2A1908EF
:1016A0007F6E5D4C10B504469848844208D10121F4
:1016B000084600F0D2FD0021012000F0CEFD76E0CA
:1016C0009348844208D10121022000F0C6FD002188
:1016D000022000F0C2FD6AE08E48844208D1012158
:1016E000042000F0BAFD0021042000F0B6FD5EE009
:1016F0008948844208D10121082000F0AEFD002174
:10170000082000F0AAFD52E08448844208D101215B
:10171000102000F0A2FD0021102000F09EFD46E008
:101720007F48844208D10121202000F096FD00214D
:10173000202000F092FD3AE07A48844208D101214D
:10174000402000F08AFD0021402000F086FD2EE0C0
:101750007548844208D10121802000F07EFD0021DF
:10176000802000F07AFD22E07048844208D10121F7
:10177000801500F072FD0021A01500F06EFD16E04E
:101780006B48844208D10121401500F066FD00211C
:10179000601500F062FD0AE06648844207D101212D
:1017A000001500F05AFD0021201500F056FD10BD77
:1017B000F0B50A4600210023002400BF3DE00125CA
:1017C00005FA01F3156805EA03049C4234D1056863
:1017D0004F000326BE40B543056015794E00B54065
:1017E0000668354305601579012D02D01579022D63
:1017F00016D185684F000326BE40B54385605579F4
:101800004E00B540866835438560456801268E40A8
:10181000B5434560456896798E40B6B2354345601C
:10182000C5684F000326BE40B543C560D5794E005C
:10183000B540C6683543C560491C1029BFD3F0BD0B
:101840004FF6FF7101600021017141718171C17119
:10185000704708B54FF480320092009A0A43009214
:10186000009AC261C161009AC261C2690092C269F4
:10187000009208BD0246002013690B400BB1012005
:1018800000E0002070470146086980B270470246B8
:10189000002053690B400BB1012000E0002070478D
:1018A0000146486980B270470183704741837047A1
:1018B0000AB1018300E0418370474161704742698A
:1018C0004A4042617047F0B5002300244D07ED0EF9
:1018D00002FA05F3CE1000F1200555F826504E0708
:1018E000F70E0F26BE40B543CF1000F1200646F894
:1018F0002750CE1000F1200555F8265045EA030484
:10190000CE1000F1200545F82640F0BD0000024051
:101910000004024000080240000C02400010024097
:101920000014024000180240001C02400020024047
:10193000002402400028024010B50446F8488442C2
:1019400009D10121480500F0BBFC00214FF4001033
:1019500000F0B6FC18E0F348844209D10121880563
:1019600000F0AEFC00214FF4800000F0A9FC0BE079
:10197000ED48844208D10121C80500F0A1FC0021F6
:101980004FF4000000F09CFC10BD2DE9FF47044619
:101990000D460026B1460427DFF89083A6884FF64F
:1019A000C0700640684600F01CFBDDF80880E04887
:1019B000B8FBF0F01FFA80F946EA0906A6802088F5
:1019C0004FF6FE71084020800026DA4928688842D8
:1019D0000CD828684000B8FBF0F087B2042F00DA7A
:1019E00004273E4309F10100208427E0E8884BF6F4
:1019F000FF71884206D1286800EB4000B8FBF0F088
:101A000087B209E0286800EBC00101EB0010B8FBC9
:101A1000F0F087B247F48047C7F30B0008B947F0EE
:101A2000010747F4004006434FF4967009FB00F0AD
:101A30004FF47A7190FBF1F0401C2084A68320883B
:101A400040F00100208026884FF6F5300640A88837
:101A50006989084306432680A8892989084320818B
:101A6000BDE8FF8741F288310160002181804BF69B
:101A7000FF71C1800021018141814FF4804181814A
:101A8000704721B1028842F00102028004E002881E
:101A90004FF6FE731A400280704729B1828C4FF6D0
:101AA000EF731A40828403E0828C42F01002828439
:101AB00070470A460021818C4FF6F073194002F0FE
:101AC0000F0319438184704721B1028842F4807268
:101AD000028004E002884FF6FF631A4002807047DC
:101AE00021B1028842F40072028004E002884FF6BD
:101AF000FF531A400280704712B141F0010101E02A
:101B000001F0FE010182704721B1028842F4806237
:101B1000028004E002884FF6FF331A4002807047CB
:101B20000A46002181894FF60173194002F0FE0335
:101B300019438181704721B1828942F0010282817B
:101B400004E082894FF6FE731A408281704721B10A
:101B5000028842F04002028004E002884FF6BF7320
:101B60001A400280704721B1028842F4004202808C
:101B700003E00288C2F30E020280704721B9028896
:101B800042F08002028004E002884FF67F731A4020
:101B900002807047B1F5804F05D0828B4BF6FF7302
:101BA0001A40828303E0828B42F480428283704732
:101BB000B1F5006F04D1028842F40062028004E0B3
:101BC00002884FF2FF731A4002807047B1F5005F40
:101BD00004D1028842F40052028004E002884DF6EB
:101BE000FF731A400280704721B1028842F0100250
:101BF000028004E002884FF6EF731A4002807047BB
:101C0000018270470146088AC0B2704721B102883C
:101C100042F48052028004E002884EF6FF731A40BC
:101C200002807047B1F5006F04D1028842F400626F
:101C3000028004E002884FF2FF731A40028070476E
:101C400021B1028842F02002028004E002884FF6AF
:101C5000DF731A40028070470146088B00127047FC
:101C600021B1828842F40062828004E082884FF2CF
:101C7000FF731A408280704721B1828842F48052FB
:101C8000828004E082884EF6FF731A40828070479B
:101C900008B5024600200090009200980844009089
:101CA0000098008808BD1AB183880B43838002E046
:101CB00083888B438380704770B5024600240025DB
:101CC00000230020958A138B1B0445EA030626F0A7
:101CD0007F4404EA01068E4201D1012000E0002089
:101CE00070BD10B501460020002300228B8A0A8BAC
:101CF000120443EA020424F07F4010BD0CB50246F2
:101D0000002000230193009300920B0F019321F018
:101D10007F41019B83B1009B1433009310E00000CE
:101D20000054004000580040005C004000127A005F
:101D300040420F00A0860100090C009B183300935D
:101D4000009B1B680B400BB1012000E000200CBD84
:101D5000002221F07F42D3438382704730B5024690
:101D600000200023948801F0E06504EA154321F087
:101D70007F41948A0C4014B10BB1012000E0002097
:101D800030BD002221F07F42D343838270470000A0
:101D90000E49086070470D49486070470B498860DC
:101DA00070474AF6AA200949086070474CF6CC40B3
:101DB00006490860704701460020044AD2680A407C
:101DC0000AB1012000E00020704700000030004010
:101DD000F948006840F00100F74908600020F64922
:101DE00008310860F4480068F4490840F249086086
:101DF000F348091D0860F348EF4984310860F04852
:101E00001038091D0860EC48006820F48020EA4979
:101E100008600020E8490C310860E7498C3108600F
:101E200070470021E44A921C1170114608707047F7
:101E300010B501460022002300204A11012A02D1D8
:101E4000DD4C236808E0022A03D1DB4C70342368A0
:101E500002E0D94C7434236801F01F02012494403D
:101E60001C400CB1012000E0002010BD38B500205E
:101E700000900024002500BF3120FFF7D9FF054660
:101E80000098401C00900098B0F5A04F01D0002DA4
:101E9000F2D03120FFF7CCFF08B1012400E000248C
:101EA000204638BD01460020C34A106820F0F800E3
:101EB00040EAC10010607047C349086070470021C4
:101EC000BD4A703211701170012802D004280AD165
:101ED00004E00121B84A7032117005E00521B64ACC
:101EE0007032117000E000BF00BF7047B749086052
:101EF000704770B5049C41EA82150126C6EB530673
:101F000045EA0645054345EA0465AB4E361D356096
:101F100070BDAD4908667047820142EA0172A64B66
:101F200084331A607047A8498866704710B58301EA
:101F300043EA016343EA02739F4C8834236010BD77
:101F4000A14908677047A049C8647047024600204D
:101F5000994B0833186820F0EC6042EA01031843FB
:101F6000954B08331860704702460020924B0833A7
:101F7000186820F0784042EA010318438E4B08337A
:101F800018607047014600208B4A0832106820F024
:101F9000030008431060704787480830006800F06D
:101FA0000C00704701460020834A0832106820F078
:101FB000F000084310607047014600207E4A083256
:101FC000106820F4E050084310607047014600207C
:101FD000794A0832106820F4604040EAC10010607D
:101FE0007047F0B5002100220024022500260223BC
:101FF000714F08373F6807F00C0121B1042905D063
:10200000082937D105E0724F076036E0714F07604D
:1020100033E0694F3F1D3F68C7F38056664F3F1D51
:102020003F6807F03F036EB16A4FB7FBF3F7DFF885
:1020300088C10CF1040CDCF800C0CCF3881C07FB51
:102040000CF40CE0624FB7FBF3F7DFF86CC10CF156
:10205000040CDCF800C0CCF3881C07FB0CF4564FD2
:102060003F1D3F68C7F301477F1C7D00B4FBF5F7B8
:10207000076002E0564F076000BF00BF4E4F0837B1
:102080003F6807F0F0010909534F7A5C0768D740B1
:102090004760494F08373F6807F4E051890A4E4FBF
:1020A0007A5C4768D7408760434F08373F6807F43A
:1020B0006041490B484F7A5C4768D740C760F0BD24
:1020C000002100F44072B2F5407F0AD13A4A08324A
:1020D000116821F4F811414A02401143364A08328E
:1020E0001160354A70321268C0F30B031A43324B49
:1020F00070331A6070473549443908607047334976
:102100004039086070473649086070470146002032
:10211000294A8C32106820F01F004A1E1043264ABC
:102120008C321060704701460020234A8C321068C0
:1021300020F4F8504A1E40EA02201F4A8C321060F8
:102140007047014600201C4A8C32106820F4401071
:1021500008431060704701460020174A8C3210680F
:1021600020F4400008431060704701460020124AE6
:102170008C32106820F440300843106070471949D1
:102180000860704739B10C4A3032126802430A4B7A
:1021900030331A6006E0084A303212688243064B38
:1021A00030331A607047F9B1034A3432126802437F
:1021B000014B34331A601CE000380240FFFFF6EA9E
:1021C000103000240030002000004742800E4742BB
:1021D0000024F40000127A0030000020FFFCFF0F02
:1021E0005C014742E01147428F4A126882438E4B9E
:1021F0001A60704739B18C4A121D126802438A4B2B
:102200001B1D1A6006E0884A121D12688243864B25
:102210001B1D1A60704739B1834A0C3212680243A1
:10222000814B0C331A6006E07F4A0C3212688243FD
:102230007D4B0C331A60704739B17B4A10321268FB
:102240000243794B10331A6006E0774A1032126865
:102250008243754B10331A60704739B1724A243A81
:1022600012680243704B243B1A6006E06E4A243A1F
:10227000126882436C4B243B1A60704739B16A4A3A
:10228000203A12680243684B203B1A6006E0664A17
:10229000203A12688243644B203B1A60704739B180
:1022A000614A1C3A126802435F4B1C3B1A6006E00D
:1022B0005D4A1C3A126882435B4B1C3B1A607047B4
:1022C00039B1594A143A12680243574B143B1A6009
:1022D00006E0554A143A12688243534B143B1A6085
:1022E000704739B1504A103A126802434E4B103BC6
:1022F0001A6006E04C4A103A126882434A4B103B7F
:102300001A60704739B1484A1C3212680243464B82
:102310001C331A6006E0444A1C3212688243424B66
:102320001C331A60704739B13F4A203212680243A9
:102330003D4B20331A6006E03B4A2032126882434C
:10234000394B20331A60704739B1374A243212684A
:102350000243354B24331A6006E0334A24321268B4
:102360008243314B24331A60704739B12E4A2C32E4
:10237000126802432C4B2C331A6006E02A4A2C3296
:1023800012688243284B2C331A60704739B1264AB1
:10239000303212680243244B30331A6006E0224A7E
:1023A000303212688243204B30331A607047012864
:1023B00008D11D493C31096841F008011A4A3C32F4
:1023C000116007E018493C31096821F00801164AFC
:1023D0003C321160704739B1134A273A12780243F0
:1023E000114B273B1A7006E00F4A273A12788243B6
:1023F0000D4B273B1A7070470B484030006840F087
:102400008070094940310860704701460020064A43
:10241000283A12680A400AB1012000E00020704703
:1024200001492639087070473438024010B501213F
:102430008803FFF756FF00214FF48040FFF751FF5C
:1024400010BD1C49086070471B490862704730B5D1
:1024500000228B071C0F0F2303FA04F2154B0833DD
:102460008C1053F824309343124C08348D1044F8E8
:10247000253023468C1053F824308C07240F00FAA3
:1024800004F423430B4C08348D1044F8253030BD40
:102490000949DC310860704708490860704700202E
:1024A00004492031096801F4807109B1012000E07C
:1024B00000207047003801400000274200042742F6
:1024C00010B50446FE48844208D101210846FFF7B2
:1024D00008FF00210120FFF704FF9DE0B4F1804FC9
:1024E00008D101210846FFF7EBFE00210120FFF78C
:1024F000E7FE91E0F348844208D101210220FFF772
:10250000DFFE00210220FFF7DBFE85E0EE4884427B
:1025100008D101210420FFF7D3FE00210420FFF79A
:10252000CFFE79E0E948844208D101210820FFF775
:10253000C7FE00210820FFF7C3FE6DE0E448844297
:1025400008D101211020FFF7BBFE00211020FFF76A
:10255000B7FE61E0DF48844208D101212020FFF767
:10256000AFFE00212020FFF7ABFE55E0DA488442A1
:1025700008D101210220FFF7B4FE00210220FFF75D
:10258000B0FE49E0D548844209D101210804FFF793
:10259000A8FE00214FF48030FFF7A3FE3CE0D048B6
:1025A000844209D101214804FFF79BFE00214FF42A
:1025B0000030FFF796FE2FE0CA48844209D101217E
:1025C0008804FFF78EFE00214FF48020FFF789FE7C
:1025D00022E0C548844208D101214020FFF770FE67
:1025E00000214020FFF76CFE16E0C048844208D16D
:1025F00001218020FFF764FE00218020FFF760FEAC
:102600000AE0BB48844207D101218015FFF758FE3C
:102610000021A015FFF754FE10BD00220288A84B30
:1026200098420ED0AC4B98420BD0B0F1804F08D0FE
:10263000A44B984205D0A44B984202D0A34B984299
:1026400004D14FF68F731A404B881A43A04B98421F
:1026500007D0A04B984204D04FF6FF431A400B8995
:102660001A4302804B68C3620B880385944B9842DF
:1026700002D0994B984201D18B7A03860123838241
:1026800070474FF0FF31416000210180018141809E
:10269000817270470185828270470A460021018855
:1026A0004FF68F73194011430180704741627047A4
:1026B000C16270470146486A70470146088D7047FD
:1026C00021B1028842F00202028004E002884FF643
:1026D000FD731A400280704721B1028842F0040263
:1026E000028004E002884FF6FB731A4002807047B4
:1026F00021B1028842F08002028004E002884FF695
:102700007F731A400280704702884FF6F7731A40B1
:10271000028002880A430280704702884FF6FF4316
:102720001A40028002880A430280704721B1028861
:1027300042F00102028004E002884FF6FE731A4064
:102740000280704770B5002400220023058C4FF6EC
:10275000FE7635400584028C8388048B4FF68F7596
:102760002C40B51E2C400D882C43751E2A408D89A7
:102770002A434D882A43524DA84202D0564DA842C2
:1027800013D14FF6F7752A40CD892A434FF6FB75D2
:102790002A408D882A434FF6FF652B404FF6FF55A0
:1027A0002B400D8A2B434D8A2B43838004838D68F5
:1027B0004563028470BD70B5002400220023058C9F
:1027C0004FF6EF7635400584028C8388048B48F6FB
:1027D000FF752C404FF6FF452C400D884FF6FF76D5
:1027E00006EA05252C434FF6DF752A408D8906EA57
:1027F00005152A434D8806EA05152A43304DA8429F
:1028000002D0354DA8421DD14FF67F752A40CD89A3
:102810004FF6FF7606EA05152A434FF6BF752A40A4
:102820008D8806EA05152A434FF6FF352B404FF2F7
:10283000FF752B400D8A06EA85052B434D8A06EA73
:1028400085052B43838004838D688563028470BD76
:1028500070B5002400220023058C4FF6FF6635403A
:102860000584028C8388848B4FF68F752C404FF63D
:10287000FC752C400D882C434FF6FF552A408D895E
:102880004FF6FF7606EA05252A434D8806EA052518
:102890002A430B4DA84202D00F4DA84238D14FF227
:1028A000FF752A40CD894FF6FF7606EA05252A43B3
:1028B0004FF6FF352A408D8806EA05252A4319E0A0
:1028C000000001400004004000080040000C0040EF
:1028D000001000400014004000040140004001408E
:1028E000004401400048014000180040001C004026
:1028F000002000404EF6FF752B404DF6FF752B4033
:102900000D8A06EA05152B434D8A06EA05152B4369
:10291000838084838D68C563028470BD70B5002296
:1029200000230024058C4EF6FF7635400584038C89
:102930008488828B48F6FF752A404FF6FF452A406F
:102940000D884FF6FF7606EA05252A434DF6FF75FA
:102950002B408D8906EA05352B434D8806EA05355F
:102960002B43FE4DA84202D0FD4DA84208D14BF6A4
:10297000FF752C400D8A4FF6FF7606EA85152C432D
:10298000848082838D680564038470BD002101808A
:102990004180818081608181C18101824182704753
:1029A00070B50346002000241846183001258D40DC
:1029B000ACB21D8CA5431D8409B108290AD100EBD6
:1029C000610005684FF68F76354005600568154350
:1029D00005600FE00D1FC5F34E052844056848F655
:1029E000FF763540056005684FF6FF7606EA022659
:1029F0003543056070BD4163704781637047C163B3
:102A00007047016470470A460021018B4FF68F73AF
:102A100019401143018370470A460021018B48F693
:102A2000FF7319404FF6FF7303EA02231943018332
:102A300070470A460021818B4FF68F73194011436E
:102A4000818370470A460021818B48F6FF73194045
:102A50004FF6FF7303EA02231943818370470A4646
:102A60000021018B4FF6F773194011430183704722
:102A70000A460021018B4FF2FF7319404FF6FF7396
:102A800003EA02231943018370470A460021818B20
:102A90004FF6F77319401143818370470A460021AE
:102AA000818B4FF2FF7319404FF6FF7303EA022345
:102AB0001943818370470A460021018B4FF6FB734F
:102AC00019401143018370470A460021018B4FF6DC
:102AD000FF3319404FF6FF7303EA022319430183C2
:102AE00070470A460021818B4FF6FB731940114352
:102AF000818370470A460021818B4FF6FF331940CE
:102B00004FF6FF7303EA02231943818370470A4695
:102B10000021018B4FF67F731940114301837047E9
:102B20000A460021018BC1F30E014FF6FF7303EA41
:102B300002231943018370470A460021818B4FF617
:102B40007F7319401143818370470A460021818BAE
:102B5000C1F30E014FF6FF7303EA02231943818389
:102B600070470A460021018C4FF6FD73194011434E
:102B7000018470470A460021018C4FF6F773194013
:102B80001143018470470A460021018C4FF6DF7320
:102B900019404FF6FF7303EA02131943018470478B
:102BA0000A460021018C4FF67F7319404FF6FF73E0
:102BB00003EA02131943018470470A460021018C7D
:102BC0004FF6FF5319404FF6FF7303EA02231943F0
:102BD000018470470A460021018C4FF2FF731940AF
:102BE0004FF6FF7303EA02231943018470470A4634
:102BF0000021018C4DF6FF7319404FF6FF7303EA75
:102C0000023319430184704730B5002301248C40FE
:102C1000A3B2048C9C430484048C02FA01F5ADB287
:102C20002C43048430BD30B5002304248C40A3B26F
:102C3000048C9C430484048C02FA01F5ADB22C434D
:102C4000048430BD828B4FF2FF331A408283828B23
:102C50004FF6FF7303EA01231A4382837047F0B5EE
:102C60000C461546002100220026078C4EF6FF7CFC
:102C700007EA0C070784818B028C4FF6FF7707EA7F
:102C8000043640F6FF4739404FF6FF7707EA05273D
:102C900039434FF6FF7707EA0337394345F6FF77A5
:102CA0003A4046F480573A4381830284F0BD828BD8
:102CB0004FF6F3731A408283828B0A4382837047F4
:102CC000F0B50C461546002100220026078C4FF671
:102CD000FF6C07EA0C070784818B028C4FF6FF77A5
:102CE00007EA04264FF60C7739404FF6FF7707EADC
:102CF00003172F4339434FF2FF573A4046F480778A
:102D00003A4381830284F0BD028B4FF2FF331A40B5
:102D10000283028B4FF6FF7303EA01231A430283F7
:102D20007047F0B50C461546002100220026078C9E
:102D30004FF6EF7C07EA0C070784018B028C4FF6F5
:102D4000FF7707EA041640F6FF4739404FF6FF7752
:102D500007EA033739434FF6FF7703E000000140ED
:102D60000004014007EA052739434FF65F773A40F0
:102D700046F010073A4301830284F0BD028B4FF600
:102D8000F3731A400283028B0A4302837047F0B543
:102D90000C46154600210022068C4FF6FE773E4079
:102DA0000684018B028C4FF60C7631407E1C06EABD
:102DB00003162E4331434FF6F576324044F00106B8
:102DC000324301830284F0BD70B505460C4620886D
:102DD00050B92389A28861882846FFF7D8FFE18887
:102DE0002846FFF7CBFF25E0208804280AD1238955
:102DF000A28861882846FFF794FFE1882846FFF7FC
:102E000083FF17E0208808280AD12389A2886188D7
:102E10002846FFF755FFE1882846FFF748FF09E0FD
:102E20002389A28861882846FFF719FFE188284690
:102E3000FFF708FF70BD00210180418001218180E2
:102E40000021C180018170472DE9F04105460C4603
:102E500000260127608808B9022600E00026A08825
:102E6000012801D1022700E001272088A0B9238989
:102E7000A28861882846FFF78AFFE1882846FFF785
:102E80007DFF23893A4631462846FFF74AFFE1880D
:102E90002846FFF739FF13E02389A2886188284676
:102EA000FFF73FFFE1882846FFF72EFF23893A46C8
:102EB00031462846FFF76BFFE1882846FFF75EFFA3
:102EC000BDE8F0810146486B70470146886B70474A
:102ED0000146C86B70470146086C70470A884B88EA
:102EE0001A438B881A43CB881A430B891A434B89A0
:102EF0001A438B891A43A0F84420704700210180AF
:102F000041808180C180018141818181704731B1DF
:102F1000B0F8442042F40042A0F8442005E0B0F8A4
:102F20004420C2F30E02A0F84420704721B18288E9
:102F300042F00402828004E082884FF6FB731A405C
:102F40008280704721B1828842F00102828004E0D1
:102F500082884FF6FE731A40828070471AB18389C7
:102F60000B43838102E083898B4383817047818295
:102F7000704702460020138A0B400BB1012000E08D
:102F800000207047CA430282704730B502460020D5
:102F900000230024158A05EA0103958905EA010446
:102FA00013B10CB1012000E0002030BDCA43028201
:102FB000704741EA0203A0F8483070471AB183898C
:102FC0000B43838102E083898B438381704721B166
:102FD000828842F00802828004E082884FF6F7730C
:102FE0001A408280704701894FF6F87211400181C2
:102FF00070470A46002101894FF68F73194011432B
:103000000181704730B504460D4629462046FFF73A
:10301000F0FF208940F00700208130BD2DE9F0410C
:1030200004460D4616461F46602D06D13B4601223A
:1030300031462046FFF775FE05E03B46012231464A
:103040002046FFF7A4FE29462046FFF7D2FF20893D
:1030500040F007002081BDE8F08130B50C4600212A
:103060000189C9B24FF6FF7505EA032515432543CB
:103070002943018130BD2DE9F04105460E46174632
:103080009846002443463A4631462846FFF7E5FF76
:103090002C894FF6F870044044F007044FF68F7007
:1030A000044044F070042C81BDE8F081F0B5044682
:1030B0000D4616461F463B46324629462046FFF738
:1030C000CCFF208940F480402081F0BD82884FF6FB
:1030D0008F731A40828082880A43828070470289F7
:1030E0004FF6F8731A40028102890A430281704741
:1030F00002894FF67F731A40028102890A430281D6
:103100007047F0B50C4615461E46002100220023EC
:103110000189028B038C4FF6F877394021434FF633
:10312000FC473A4040F201173A434FF6DD773B4007
:103130004FF6FF7707EA06172F433B4301810283CF
:103140000384F0BD21B1828842F08002828004E0D5
:1031500082884FF67F731A4082807047A0F8501023
:103160007047000010B50446FA48844208D1012196
:103170001020FFF7B6F800211020FFF7B2F857E053
:10318000F548844209D101214804FFF799F800214C
:103190004FF40030FFF794F84AE0F048844209D138
:1031A00001218804FFF78CF800214FF48020FFF7FD
:1031B00087F83DE0EA48844209D10121C804FFF7BD
:1031C0007FF800214FF40020FFF77AF830E0E5485F
:1031D000844209D101210805FFF772F800214FF45C
:1031E0008010FFF76DF823E0DF48844208D1012109
:1031F0002020FFF776F800212020FFF772F817E073
:10320000DA48844209D101218807FFF759F80021E3
:103210004FF08040FFF754F80AE0D548844207D1C8
:1032200001214005FFF74CF800216005FFF748F841
:1032300010BD2DE9FF4705460E460024A14600BFFC
:10324000A046B08900B100BF2C8A24F44054F08815
:1032500004432C82AC8941F20C608443B0883189EC
:103260000843718908430443AC81AC8A24F4407458
:10327000B0890443AC826846FEF7B3FEB548854288
:1032800002D0B948854202D1DDF80C9001E0DDF8AA
:103290000890A88900F4004040B109EBC90000EB98
:1032A000091031684900B0FBF1F707E009EBC900EC
:1032B00000EB091031688900B0FBF1F76420B7FB1F
:1032C000F0F004012009642101FB1078A88900F4C2
:1032D000004040B1322000EBC800B0FBF1F000F03C
:1032E0000700044308E0322000EB08106421B0FB23
:1032F000F1F000F00F0004432C81BDE8FF874FF48C
:103300001651016000218180C18001810C21418121
:1033100000218181704710B502460020108A20F4F8
:1033200070600B884C8823438C882343CC882343CC
:103330001843108210BD0021018041808180C1802E
:10334000704721B1828942F40052828104E082896F
:103350004DF6FF731A4082817047028B02F47F4260
:103360000283028B0A430283704721B1828942F4AF
:103370000042828103E08289C2F30E02828170479B
:1033800021B1828A42F40062828204E0828A4FF292
:10339000FF731A4082827047C1F30802828070472F
:1033A00001468888C0F308007047028A4FF6F07320
:1033B0001A400282028A0A430282704721B182893E
:1033C00042F00202828104E082894FF6FD731A40C6
:1033D0008281704782894FF2FF731A40828182890D
:1033E0000A4382817047028A4FF6DF731A400282D5
:1033F000028A0A430282704721B1028A42F4804263
:10340000028204E0028A4BF6FF731A400282704780
:10341000818941F001018181704721B1828A42F0A6
:103420000802828204E0828A4FF6F7731A40828291
:103430007047028BD2B20283028B42EA01220283DE
:10344000704721B1828A42F02002828204E0828A9F
:103450004FF6DF731A408282704721B1828A42F0B0
:103460001002828204E0828A4FF6EF731A40828251
:103470007047828A4FF6FB731A408282828A0A431F
:103480008282704721B1828A42F00202828204E085
:10349000828A4FF6FD731A40828270471AB1838A7E
:1034A0000B43838202E0838A8B4383827047F0B5AB
:1034B0000346002400260025002040F66A17B94282
:1034C00000D100BF1846C1F3421401F01F060127C6
:1034D00007FA06F5012C01D10C3004E0022C01D1D1
:1034E000103000E014301AB107682F43076002E083
:1034F0000768AF430760F0BD02460020B1F5007FCA
:1035000000D100BF13880B400BB1012000E0002068
:10351000704701F40072B2F5007F00D100BFCA43CA
:103520000280704770B50246002400230025002069
:1035300040F66A16B14200D100BFC1F3421501F056
:103540001F03012606FA03F3012D13D19689334098
:1035500017E0000000100140004400400048004017
:10356000004C004000500040001401400078004032
:10357000007C0040022D02D1168A334001E0968A79
:1035800033400C12012606FA04F41688344013B1B5
:103590000CB1012000E0002070BD10B50022002316
:1035A00040F66A14A14200D100BF0A1201249440DF
:1035B000A3B2DC43048010BD1CB54FF4E060009062
:1035C00001208DF8040000208DF8060003208DF8FE
:1035D000050000208DF807006946F648FEF7E8F878
:1035E0004FF46040009001208DF8040000208DF819
:1035F000060003208DF8050000208DF807006946BD
:10360000ED48FEF7D5F84FF4E061EA48FEF74EF9D1
:103610004FF46041E848FEF749F90120E749087096
:103620000020E7490870E74908701CBD70B52DED12
:10363000068B04460D46E4480088401CE249088099
:1036400094ED510A10EE101A084605F0BAFE41EC4E
:10365000180B95ED000A10EE101A084605F0B1FEA1
:1036600041EC1A0BB0EE4A0AF0EE6A0A06F004FCCE
:10367000B0EE409AF0EE609A53EC182B51EC190B17
:1036800005F0CAFE45D394ED510A10EE101A084613
:1036900005F097FE41EC180B95ED010A10EE101A9B
:1036A000084605F08EFE41EC1A0BB0EE4A0AF0EE29
:1036B0006A0A06F0E1FBB0EE409AF0EE609A53EC35
:1036C000182B51EC190B05F0A7FE22D394ED510AEB
:1036D00010EE101A084605F074FE41EC180B95ED3B
:1036E000020A10EE101A084605F06BFE41EC1A0BA8
:1036F000B0EE4A0AF0EE6A0A06F0BEFBB0EE409A5F
:10370000F0EE609A53EC182B51EC190B05F084FE87
:1037100004D2AE480088401CAC490880AA48008802
:10372000142811D1A94800880A2808DDFFF744FFB2
:103730000420A44908700120A549087004E0002075
:10374000A1490880A1490880BDEC068B70BD10B569
:10375000A04890ED010A20EE000AD0ED000A90ED9D
:10376000001A00EE810A9C4880ED000A90ED000AE4
:10377000DFED9A0AB4EEE00AF1EE10FA05DD9848A2
:103780000088401C9649088002E000209449088087
:103790009348008841F28831884207DDFFF70CFF2B
:1037A00004208849087002208949087010BD10B5AE
:1037B0002DED048B8B4890ED3B0A8B48D0ED000A31
:1037C00030EE600A10EE101A084605F0FAFD41ECE2
:1037D000190BB0EE490AF0EE690A06F04DFBB0EEA7
:1037E000408AF0EE608A9FED810B53EC102B51EC78
:1037F000180B05F011FE05D27E480088401C7D495B
:10380000088002E000207B4908807A48008842F264
:103810001071884202DD03206D490870BDEC048BF5
:1038200010BD10B57448B0F90000962807DDFFF709
:10383000C3FE0420634908700520654908706F487D
:10384000B0F900005F2806DDFFF7B6FE04205D49F1
:1038500008705F49087010BD694890ED000ADFEDFF
:10386000690AB4EEE00AF1EE10FA02DD06205849CA
:103870000870634890ED000ADFED630AB4EEE00AD9
:10388000F1EE10FA02D2072051490870704710B5C6
:1038900000205E4948638863C86300215B48FEF7E7
:1038A00045FF04204749087001205949087010BDA0
:1038B0000020564948638863C863704710B50020EC
:1038C000524948638863C86300215048FEF72EFFC1
:1038D00000204F49087010BD10B501214B48FEF77C
:1038E00025FF01204A49087010BD1CB54FF4E06067
:1038F000009002208DF8040000208DF806000320BF
:103900008DF8050000208DF8070069462948FDF76D
:103910004FFF4FF46040009002208DF8040000201B
:103920008DF8060003208DF8050000208DF80700B3
:1039300069462148FDF73CFF4FF4E07000900220FB
:103940008DF8040000208DF8060003208DF8050096
:1039500000208DF8070069462E48FDF729FF8020DA
:10396000009002208DF8040000208DF8060003204E
:103970008DF8050000208DF8070069460D48FDF719
:1039800017FF0320009002208DF8040000208DF81E
:10399000060003208DF8050000208DF80700694619
:1039A0000548FDF705FF012005490870002003497F
:1039B00008701CBD000002400004024047000020C7
:1039C00048000020EC0000204400002042000020BD
:1039D00040000020900100204C00002000401C45C9
:1039E0004A000020A0040020D801002000000000B0
:1039F00000002440500000200601002004010020A7
:103A0000000100200000DC42000070420000014084
:103A1000460000200008024010B5F8484FF0E021B1
:103A20004861002088610720086148170F2100289D
:103A300007DA0A07140EF24A00F00F031B1FD454D2
:103A400003E00A07130EEF4A135400BF10BD10B570
:103A5000ED480078401CEC490870084600780528BD
:103A600014D100F07EFEFFF7F7FE0020E649087053
:103A7000E6480088401CE549088008460088C828B8
:103A800004D100F096FE0020E049088010BD10B57A
:103A90000121DF48FFF76DFA012803D10121DC483D
:103AA000FFF770FA10BD10B52DED048B0121D94838
:103AB000FFF75FFA01287CD10121D648FFF762FAAF
:103AC00004F0D2FED44890ED000AD44802F0ADFDD7
:103AD000D3480078032803D0D14800780728EAD1DA
:103AE000CE4890F8480100287ED001287DD00228D9
:103AF0007CD003287BD1B3EE040AC84880ED2B0AA2
:103B0000B3EE040A80ED360A9FEDC60A80ED330A53
:103B10009FEDC40A80ED340A9FEDC20A80ED280AA9
:103B20009FEDC00A80ED290ABF4890ED000AB8EE6B
:103B3000C00A10EE100A05F044FC41EC190B9FED91
:103B4000BB0B53EC102B05F04EFB41EC180B05F0B2
:103B50007BFCB249C1F89C00B64890ED000AB8EE73
:103B6000C00A10EE100A05F02CFC41EC190B9FED79
:103B7000AF0B53EC102B05F036FB41EC180B05F0A6
:103B800063FCA649C1F8C800084690ED300ADFED95
:103B9000AA0A20EE200A80ED300A90ED3B0ADFED04
:103BA000A70A20EE200A80ED3B0A90ED3B0AA448CC
:103BB00000E0EEE0D0ED000A30EE600AA14880EDB2
:103BC000000A0846D0ED300A9F4890ED241A70EEA6
:103BD000C10AB0EE600A9D48D0ED000A01F19C00D8
:103BE00001F0C1FC8D4803E05CE076E08EE0CFE0C0
:103BF00080ED310A9548D0ED000A924890ED000A18
:103C00008648C83001F0AFFC844880ED3C0A90ED56
:103C10003C0AD0ED310A70EE200A8D4890ED000A82
:103C2000B8EEC00A30EE800A8A4880ED000A90EDB6
:103C3000000ADFED890AB4EEE00AF1EE10FA02D2D2
:103C40009FED850A0FE0834890ED000ADFED830ABF
:103C5000B4EEE00AF1EE10FA02DD9FED800A02E018
:103C60007C4890ED000A7B4880ED000A90ED000A48
:103C7000DFED7B0A20EE200ABDEEC00A794880ED18
:103C8000000A744890ED000A7748D0ED000A20EE53
:103C9000200A624880ED1A0A90ED1A0A734880EDF6
:103CA0001A0A75E06A4890ED000AB8EEC00A6E483C
:103CB000D0ED000A20EE200A584880ED1A0A644828
:103CC00090ED000AB8EEC00A6748D0ED000A20EE79
:103CD000200A664880ED1A0A5AE05048D0ED300AB2
:103CE000594890ED241A70EEC10AB0EE600A5748A8
:103CF000D0ED000A49489C3001F035FC474880ED82
:103D0000310A90ED310A80ED1A0A41E058480078F6
:103D1000401C5749087008460078022812D13F48D5
:103D2000D0ED3B0A534890ED061A70EEC10AB0EE92
:103D3000600ADFED510A3948C83001F014FC3748F9
:103D400080ED3C0A354890ED3C0A80ED300A02F0E7
:103D5000B9FB03F00FFB3148D0ED300A454890ED38
:103D60000B1A70EEC10AB0EE600ADFED440A2B4870
:103D70009C3001F0F8FB294880ED310A90ED310AC2
:103D800080ED1A0A90ED310A384880ED1A0A00BF1A
:103D900000BFBDEC048B10BD10B539480068401C55
:103DA00037490860FFF753FE10BD00BF3448016873
:103DB0004FF0E0208269324800688142F6D13148F4
:103DC000801A0E4BB0FBF3F001EB4103C3EBC113C0
:103DD00000EBC3007047F0B50646FFF7E6FF054667
:103DE00000BFFFF7E2FF0446AC4201D3671B02E0CD
:103DF000C5F1FF300719B742F3D3F0BD4090020080
:103E000018ED00E000E400E0610000206200002006
:103E100000080040000C00400C010020A00400201D
:103E2000EC00002000000000FC000020F6688FFF7E
:103E3000FFFF0F3FF80000205555D53A29FF7F3B83
:103E4000D801002064000020640800201000002039
:103E5000F0000020740000200000FAC20000FA42C6
:103E60000000804410010020F4000020EC05002038
:103E700060000020500700206F12033B6F12833A4E
:103E800058000020007A030AF0B50646FFF78DFFC0
:103E9000054600BFFFF789FF0446AC4201D3671B0C
:103EA00002E0C5F1FF30071906EB4600C0EBC61073
:103EB000B7EBC00FEED3F0BD0146A448814201D25A
:103EC00000207047A248814201D20820F9E7A148AA
:103ED000814201D21020F4E79F48814201D218208C
:103EE000EFE79E48814201D22020EAE79C488142C8
:103EF00001D22820E5E79B48814201D23020E0E74B
:103F00009948814201D23820DBE79848814201D2AA
:103F10004020D6E79648814201D24820D1E7954813
:103F2000814201D25020CCE75820CAE770B506463E
:103F3000904C00BFFDF7AAF8F320FDF7A8FB204640
:103F4000FFF7BAFF05460221FDF7F4F8092802D071
:103F50004FF0FF3070BD00250BE016F8151020461D
:103F6000FDF75AFA092802D04FF0FF30F2E7641C3F
:103F70006D1C0B2DF1DBFDF796F80020EAE70146FA
:103F80007C4A002003E013780B54521C401C0B2881
:103F9000F9DB704710B50446B4F96400C0F30F2094
:103FA00075490880B4F96400C11700EB116109126A
:103FB000A0EB0121704A5180607A012802D111469C
:103FC000888006E094F90900401C10B900206A4975
:103FD00088806634608900126749C8806089C1178B
:103FE00000EB11610912A0EB0121634A1181A08944
:103FF000001211464881A089C11700EB1161091216
:10400000A0EB01219181208800121146C8812088EF
:10401000C11700EB11610912A0EB01211182608828
:104020000012114648826088663CC11700EB11619E
:104030000912A0EB012191821046FFF777FF00B132
:1040400010BD00BFFCE770B504460D4620124A497A
:1040500008802046E11704EB11610912A4EB01214D
:10406000454A5180012D03D101201146888004E08A
:10407000681C10B90020404988803F48FFF756FF70
:1040800000B170BD00BFFCE710B52DED048B0446F8
:104090003A4800210160416001818172FFF76FFFA2
:1040A000364840783549097840EA012000B2A4F842
:1040B00064003248807810B9FF20607204E02F4815
:1040C0008078012800D160722C4800792B49C9788A
:1040D00040EA0120683420812848807927494979BD
:1040E00040EA01206081608905F05EF941EC190B1E
:1040F0009FED230B53EC102B05F075F841EC180BDA
:1041000005F0A2F9E0601D48007A1C49C97940EA2F
:10411000012024F8020C1948807A1849497A40EAAB
:1041200001202080208805F03FF941EC190B9FED1C
:10413000140B53EC102B05F056F841EC180B05F05E
:1041400083F96060683CBDEC048B10BD0040000842
:104150000080000800C000080000010800000208FC
:1041600000000408000006080000080800000A0813
:1041700000000C0800000E08640200207A020020F3
:104180002D431CEBE2361A3F10B586B00121052005
:10419000FDF7F8FF01210802FEF74EF80720049012
:1041A00003208DF8140004A9FE48FDF701FB6F20E1
:1041B000049003208DF8140004A9FB48FDF7F8FAD9
:1041C00012200121002807DA0A07140EF74A00F02E
:1041D0000F031B1FD45403E00A07130EF44A1354B1
:1041E00000BF1220012181404209920002F1E02229
:1041F000C2F8001100BF002000904FF48030019001
:104200000020029003906846FCF7AEFA06B010BD9D
:1042100000B595B001218805FDF7B4FF01218802A2
:10422000FEF70AF84FF080600690E2480790E248F7
:104230000890002009900C200A9000200B904FF469
:1042400080600C9040000D9080000E9040110F9007
:1042500000201090119001201290002013901490D3
:1042600006A9D648FCF71AFD0020009001208DF821
:1042700004008DF8050000200290049003208DF8C2
:1042800014006946CB484C38FCF73FFA01231A4624
:104290000A21C8484C38FCF7BEFA012302220C213F
:1042A000C4484C38FCF7B7FA012303220B21C1485C
:1042B0004C38FCF7B0FA0121C048FCF729FD012178
:1042C000BC484C38FCF752FB0121BA484C38FCF78B
:1042D00042FB0121B7484C38FCF75DFAB5484C3831
:1042E000FCF7F5FA15B000BD00B587B00121480212
:1042F000FDF7A2FF0020019001208DF808000020AA
:104300008DF809004FF080500390001304900020B6
:10431000059003208DF8180001A9A948FCF7F5F9CC
:104320000021A748FCF722FB0321A548FCF77BFBF3
:1043300001231A461946A248FCF734FB0123022246
:1043400011469F48FCF72EFB0123032211469C488F
:10435000FCF728FB002214219948FCF770FB00228F
:1043600018219748FCF76BFB00221C219448FCF7AE
:1043700066FB4FF480119248FCF773FB4FF48031D9
:104380008F48FCF766FB00218D48FCF781FB00217C
:104390008B48FCF788FB012240F207418848FCF774
:1043A0009BFB01218648FCF7F6F907B000BD00B57C
:1043B00087B001210802FDF73FFF00200190012096
:1043C0008DF8080000208DF809004FF08050039010
:1043D000001304900020059003208DF8180001A917
:1043E0007848FCF792F900217648FCF7BFFA0321E0
:1043F0007448FCF718FB01231A4600217148FCF7AA
:10440000D1FA0123022205216E48FCF7CBFA0123E1
:10441000032206216B48FCF7C5FA002214216948E3
:10442000FCF70DFB002218216648FCF708FB002270
:104430001C216448FCF703FB4FF480116148FCF732
:1044400010FB4FF480315F48FCF703FB00215D480F
:10445000FCF71EFB00215B48FCF725FB012240F224
:1044600007415848FCF738FB01215648FCF793F9FF
:1044700007B000BD10B54FF400414A48FDF71FFAE0
:104480005048006800F0040004282AD1C0434D4978
:1044900008600846006CA0F6070000B24A4988820E
:1044A0004848406CA0F2F67000B248820846B0F965
:1044B000120000EE100AB8EEC00ADFED440A20EE4A
:1044C000200ABDEEC00A10EE100A00B248823D4834
:1044D000C06B00B2C8810846C089A0F6040000B2D3
:1044E000C8813748006800F0040004282AD1C0437E
:1044F000334908603348D0F83C0100B232490882A1
:104500000846008AA0F2FA7000B208820846B0F9A4
:10451000100000EE100AB8EEC00ADFED2D0A20EE02
:10452000200ABDEEC00A10EE100A00B2088225482B
:10453000D0F844012749A1F836012248D0F84001BB
:10454000A1F83A011F211F48FCF7EBFA1F211C4874
:10455000FCF7E7FA012240F207411A48FCF7BCFADF
:10456000012240F207411648FCF7B6FA1A491948E9
:1045700001F04DF9144803F002FA04F03FF917482E
:10458000006841F2883188422AD214480068401CF1
:10459000124908600C48B0F868000B49A1F86A009D
:1045A00024E00000000802400000024018ED00E096
:1045B00000E400E04C220140860200202864024012
:1045C000002101400020014064080020DFE0833F1B
:1045D00031B6773FA004002038070020800000207B
:1045E00003F0EFFAFD49FE48FFF720F803F032FA36
:1045F000FC480078012801D100F0BEF9FA4890F992
:10460000000009280AD2DFE800F0050A0F14272A63
:104610002D72A200FEF7D0FF04F010FD9BE0F349DD
:10462000EF4801F06FF896E0F049ED4801F021FE07
:1046300091E0FFF75AF90120E94908609FEDEC0A83
:10464000084680ED250AEB48B0F85A00A1F84A0167
:10465000084601F025FD7EE0FEF7AEFF7BE003F0AB
:1046600045FB78E00120DE4908609FEDE10A08463D
:1046700080ED250A9FEDDE0A80ED1A0ADD48B0F8CC
:104680005A00DD490988084400B2D549A1F84A0119
:104690000846B0F84A0100F5004000B2D349A1F83D
:1046A0004A01CF4801F0FCFCD44890ED000AB1EE7D
:1046B000400AD348D0ED000A20EE200ADFEDD10AEF
:1046C00080EE201AD04880ED041ACC4890ED010A03
:1046D000CB48D0ED000A20EE200ADFEDCA0A80EEBA
:1046E000201AC94880ED071A03F043FD33E0C7489C
:1046F0000078BD4991F9001088420DD00020C449CE
:10470000087000BF04E00021C24A1154411C88B265
:10471000B0F5B47FF7DB01E0FFF7E7F80120B0491F
:1047200008609FEDB30A084680ED250AB148B0F84D
:104730005A00A1F84A01084601F0B2FCB4480078DA
:1047400020B1FEF739FF0820A749087003E00020D8
:10475000A549087000BF00BFA3480078AB490870A6
:1047600010BD70B52DED048B00240025002009E05C
:1047700000EB4001891CA84A32F8111021448CB288
:10478000411CC8B20428F3DBA510284604F00CFE37
:1047900041EC190B9FEDA10B53EC102B04F023FD02
:1047A00041EC180B04F050FE95490860BDEC048BF9
:1047B00070BDF0B500240025002308E003EB43069C
:1047C000954F37F816602644B4B25E1CF3B2042B42
:1047D000F4DBA5109F21002220E08B185810914B8C
:1047E00033F91030AB4202DA8B1859100DE08D4BC3
:1047F00033F91030AB4202DD8B185A1005E0A0F1FE
:1048000028031BB2884E338009E0531C994205D11E
:10481000A0F128031BB2844E338000E0DDE700BF27
:10482000F0BDF0B500250023002409E004EB4406A8
:10483000761C794F37F816602E44B5B2661CF4B278
:10484000042CF3DBAB10F02100222FE040F6F774CC
:10485000A34203DD0024754E348028E0B3F5B87F11
:1048600003DA0124714E348021E08C1860106D4C05
:1048700034F910409C4202DA8C1861100DE0694C4A
:1048800034F910409C4202DD8C18621005E0A0F162
:10489000280424B2654E348009E0541CA14205D19D
:1048A000A0F1280424B2614E348000E0CEE700BFBE
:1048B000F0BD10B52DED028B0446B0EE408A01200C
:1048C0004A490860464908600846B0F84A01204451
:1048D00000B2A1F84A010846B0F84A0100F50040CC
:1048E00000B24249A1F84A019FED410A3C4880EDDF
:1048F0001A0A9FED3F0A084680ED1A0A384880EDF3
:10490000258A084680ED258A354801F0C9FB3748DD
:1049100001F0C6FBBDEC028B10BD10B52DED028B76
:104920000446B0EE408A0120304908602C490860F6
:104930000846A0F84A41B0F84A0100F5004000B22C
:104940002A49A1F84A019FED2A0A254880ED1A0A52
:104950009FED270A084680ED1A0A214880ED258A36
:10496000084680ED258A1E4801F09AFB1F4801F099
:1049700097FBBDEC028B10BD00B52DED048B83B011
:104980002B48B0F9000000F08DFB8DED010ACDED54
:10499000020A9DED020A274880ED000A90ED000A08
:1049A000254880ED000A234890ED000AF7EE000A42
:1049B00030EE200A10EE101A084604F002FD41EC19
:1049C000190B9FED1E0B53EC102B04F00CFC41EC6B
:1049D000180B04F039FD1B49086035E0380700204A
:1049E000A0040020B5000020EC000020EC05002011
:1049F0000000000064080020A0000020B00100209A
:104A000000010020D7B3DD3F7009002050020020D4
:104A100058020020140E0020860200204D27A8B561
:104A20008D0E9C3F34BB00080401002006010020CD
:104A3000C0000020B800002090000020000000000E
:104A40000000F83FBC00002005480088054909889F
:104A5000084400B20249088003B0BDEC048B00BDDD
:104A6000C0000020C200002000B587B00121480529
:104A7000FDF788FB01210220FDF784FB04220A21B7
:104A8000F848FCF720FF04220B21F648FCF71BFF37
:104A90004FF44060059002208DF8180001208DF839
:104AA0001A0000208DF81B0003208DF8190005A9BD
:104AB000EC48FCF77DFE01218805FDF7ACFBEA48D8
:104AC000FCF73AFFE948008840F40040E7490880D5
:104AD0000846008820F4004008800020ADF8080057
:104AE0004BF6FF70ADF80A000020ADF80C00081579
:104AF000ADF80E000001ADF81000DD48019001A9ED
:104B0000D948FCF742FF0121D748FCF7FDFF0121FE
:104B1000D548FCF7B6FF07B000BD00B587B04FF42D
:104B20000061D048FCF7A6FE01284FD1D14908709A
:104B300004220A21CB48FCF7C6FE04220B21C948F7
:104B4000FCF7C1FE4FF44060059002208DF818007C
:104B500001208DF81A0000208DF81B0003208DF82D
:104B6000190005A9BF48FCF723FE01218805FDF7C0
:104B700052FBBD48FCF7E0FEBC48008840F4004012
:104B8000BA4908800846008820F4004008800020C8
:104B9000ADF808004BF6FF70ADF80A000020ADF844
:104BA0000C000815ADF80E000001ADF81000B0487B
:104BB000019001A9AC48FCF7E8FE0121AA48FCF7E6
:104BC000A3FF0121A848FCF75CFF00BF07B000BDB0
:104BD0001CB501210220FDF7D5FA4FF4806000904A
:104BE00001208DF8040000208DF8060001208DF8CA
:104BF000070003208DF8050069469A48FCF7D8FDA8
:104C00004FF40060009000208DF804008DF806003D
:104C100001208DF8070003208DF8050069469148B2
:104C2000FCF7C6FD4FF480618E48FCF73DFE4FF463
:104C300000618C48FCF71EFE8F4908704FF400613C
:104C40008848FCF717FEC0B901208B490870002482
:104C500011E04FF480618348FCF728FE0220FFF743
:104C6000BAF84FF480617F48FCF71EFE0220FFF780
:104C7000B2F8601CC4B2092CEBDB1CBD2DE9F0417D
:104C800005460F4614461E467C4806604FF4003128
:104C90007548FDF733F87A4908704FF44850794960
:104CA00008600CE077490868411E764A116030B907
:104CB000FFF78EFFFFF731FF0120BDE8F0814FF4D1
:104CC00000316948FDF71AF80028EBD10121664848
:104CD000FCF7FAFE4FF4A0606A49086007E06949F2
:104CE0000868411E674A116008B90120E5E7664976
:104CF0005D48FCF7E1FF0028F1D0002229465A4820
:104D0000FCF7FAFE4FF4A0605E49086007E05D49D9
:104D10000868411E5B4A116008B90120CDE75B4974
:104D20005148FCF7C9FF0028F1D039464E48FCF73E
:104D300067FF4FF4A0605349086007E051490868D5
:104D4000411E504A116008B90120B6E75049464853
:104D5000FCF7D4FF0028F1D001214348FCF7B4FE52
:104D60004FF4A0604749086007E046490868411EC3
:104D7000444A116008B901209FE743493A48FCF7CB
:104D80009BFF0028F1D0012229463748FCF7B4FEEA
:104D90004FF4A0603B49086007E03A490868411EAB
:104DA000384A116008B9012087E73949891E2E4821
:104DB000FCF7A4FF0028F0D001212B48FCF7A4FE4B
:104DC00029481830008801212748FCF789FE4FF454
:104DD000A0602C49086007E02A490868411E294A5A
:104DE000116008B9012068E729493C311E48FCF7E9
:104DF00085FF0028F0D01C48FCF704FF2070641CDD
:104E000000211948FCF780FE07E01E490868411E92
:104E10001C4A116008B901204FE71D493C31124876
:104E2000FCF76CFF0028F0D00F48FCF7EBFE207079
:104E30004FF4A0601349086007E012490868411E5A
:104E4000104A116008B9012037E70748008800F4CC
:104E500000700028F1D101210348FCF755FE012024
:104E60002BE70000000402400058004000540040BE
:104E700040420F00D6000020D5000020C8000020CE
:104E8000D4000020D00000200100030082000700B1
:104E90000400001010B5002807DA0A07140E794A3A
:104EA00000F00F031B1FD45403E00A07130E764AC9
:104EB000135410BD00BF704700BF744A128802F03F
:104EC0004002002AF9D0C2B2704B9A80704710B5E8
:104ED00096B0044601216E48FDF754F901211020D7
:104EE000FDF7AAF9072206216A48FCF7ECFC072225
:104EF00011466848FCF7E7FCC020149002208DF8AA
:104F0000540000208DF8560001208DF85700022033
:104F10008DF8550014A95F48FCF74AFC5B48FEF782
:104F200021F910940020ADF84C000C20ADF84A0097
:104F30000020ADF84800ADF84600ADF8440010A9D7
:104F40005248FEF776F9012280215048FEF7A6FA72
:104F500025208DF83C0007208DF83D0000208DF8BD
:104F60003E0001208DF83F000FA8FBF758FB0721FA
:104F70002520FFF78FFF252000F079F80121434815
:104F8000FEF7DFF94448FBF7E7FD4FF000600090C3
:104F90003E48001D0190414802904020039080004F
:104FA0000490002005904FF4806006900020079048
:104FB000089009900A900B9003200C9000200D900F
:104FC0000E9069463448FBF769FE01213248FBF731
:104FD0009FFE46208DF83C0001208DF83F000FA871
:104FE000FBF71DFB08214620FFF754FF462000F089
:104FF0003EF8012210212848FBF717FF16B010BD1C
:105000000FB438B500212448FBF782FE05A80090B4
:1050100040F201112148009B049A04F039FE84B249
:1050200000200090FF2C00DDFF2421461A48FBF7EA
:1050300090FE01211848FBF76BFE00BF402113488A
:10504000FEF75AFA0028F9D038BC5DF814FB10B509
:1050500013491148FBF706FF012807D110490E48F4
:10506000FBF72AFF00210C48FBF752FE10BD00F0B1
:105070001F02012191404209920002F1E022C2F890
:105080000011704718ED00E000E400E0001001405E
:105090000200400000040240B86402409E0200206A
:1050A000008000283CB5034603F50044A0B2024648
:1050B000C51700EB157528110246C51700EB95556D
:1050C000AD12A0EB8525A9B200F440627AB3B2F527
:1050D000806F43D0B2F5006F03D0B2F5406F51D16D
:1050E00011E0364A02EB810292ED000A8DED010AD1
:1050F00040F2FF32521A314D05EB820292ED000A66
:105100008DED000A3FE040F2FF32521A2B4D05EBC5
:10511000820292ED000A8DED010A2A4602EB81021D
:1051200092ED000AB1EE400A8DED000A2BE0FFE798
:10513000224A02EB810292ED000AB1EE400A8DEDA7
:10514000010A40F2FF32521A1C4D05EB820292ED29
:10515000000AB1EE400A8DED000A14E040F2FF3281
:10516000521A164D05EB820292ED000AB1EE400A8A
:105170008DED010A2A4602EB810292ED000A8DEDC7
:10518000000A00E000BF00BF9DED000ADDED010A4E
:105190003CBD10B501464FF00042002000BF00EBBF
:1051A00052038B4204D8C91A40EA0204600800E0A6
:1051B00040089408221EF2D110BD000034AB000854
:1051C00010B5002807DA0A07140E974A00F00F03FB
:1051D0001B1FD45403E00A07130E944A135410BD46
:1051E00000B58FB001210320FCF7CCFF0121084658
:1051F000FDF722F8012208218D48FCF764FB01220B
:1052000009218B48FCF75FFB01220A218848FCF743
:105210005AFB01220D218748FCF755FB01220E2184
:105220008448FCF750FB01220F218248FCF74BFB1E
:105230004FF4E0600D9002208DF8380000208DF8CA
:105240003A0003208DF8390000208DF83B000DA9AD
:105250007748FCF7ADFA4FF460400D9002208DF8CE
:10526000380000208DF83A0003208DF83900002026
:105270008DF83B000DA96F48FCF79AFA6E48FDF7D0
:105280001FF90020ADF828002020ADF82A0041F2D7
:1052900068000B900020ADF8300001208DF832003E
:1052A0000AA96548FDF7B9F96020ADF8140001209E
:1052B000ADF816000420ADF8180000200790ADF8F6
:1052C0002000ADF82200ADF82400ADF8260005A9B5
:1052D0005948FDF737FA05A95748FDF76CFA05A9B3
:1052E0005548FDF7B5FA08215348FDF7B8FB0821EA
:1052F0005148FDF7BDFB08214F48FDF7C6FB4FF4B1
:105300000060ADF804004010ADF806000020ADF8D4
:1053100008001420ADF80A000020ADF80C004FF48E
:105320000050ADF80E000020ADF8100001A9424871
:10533000FDF7D4FD20214048FDF7C8FE01213E487D
:10534000FDF7D6F901213C48FDF7E1FD0FB000BDA6
:105350000EB501210820FCF75EFF3848FDF7B0F8D4
:105360000920019042F2CF00ADF800000020ADF816
:105370000800ADF8020069463048FDF74EF90121FA
:105380002E48FDF7FFFD012211462C48FDF7E6FDF2
:1053900005213220FFF714FF322000F03AF80EBD4D
:1053A0000EB501210420FCF736FF2548FDF788F8EB
:1053B0000920019042F2CF00ADF800000020ADF8C6
:1053C0000800ADF8020069461D48FDF726F90121E5
:1053D0001B48FDF7D7FD012211461948FDF7BEFD18
:1053E00004211E20FFF7ECFE1E2000F012F80EBD77
:1053F00010B545F25550FCF7CBFC0320FCF7CBFC75
:105400004FF4FA60FCF7CAFCFCF7CBFCFCF7CEFCCF
:1054100010BD00F01F02012191404209920002F1EB
:10542000E022C2F80011704718ED00E000E400E04F
:10543000000002400004024000000140000C004057
:1054400000080040B7EE080A80ED270AB7EE000A10
:1054500080ED280A9FED960A80ED290A9FED940AB7
:1054600080ED2A0A9FED930A80ED2B0A9FED900AAA
:1054700080ED2C0A9FED8E0A80ED2D0A9FED8C0A9F
:1054800080ED2E0AB1EE040A80ED300A9FED880A05
:1054900080ED310AB3EE040A80ED320A9FED840AF2
:1054A00080ED330A9FED820A80ED340A9FED800A79
:1054B00080ED350A9FED7E0A80ED370A9FED7C0A6C
:1054C00080ED380A9FED7A0A80ED390A9FED780A5F
:1054D00080ED3C0AB6EE000A80ED110AB3EE0E0A2A
:1054E00080ED120A9FED720A80ED130A9FED700A9B
:1054F00080ED140AB3EE0B0A80ED150A9FED6C0ADD
:1055000080ED160A9FED6A0A80ED170A9FED680A82
:1055100080ED180A9FED660A80ED1A0AB6EE000AC1
:1055200080ED1C0AB3EE0E0A80ED1D0A9FED600AA5
:1055300080ED1E0A9FED5E0A80ED1F0AB3EE0B0A96
:1055400080ED200A9FED5A0A80ED210A9FED580A4E
:1055500080ED220A9FED560A80ED230A9FED540A42
:1055600080ED250A704770B52DED088B0446F0EEEE
:10557000408AB0EE60AAFEF718FC0546B0EE4A9AE3
:10558000256294ED000A20EE280AF0EE40BA94ED70
:10559000070AD4ED010A60EE890AB6EE001A60EE41
:1055A000810A94ED051A31EE281A00EE810AF0EE18
:1055B000409A94ED040AB1EE400AB4EEE90AF1EE25
:1055C00010FA04DD94ED040AB1EE400A0BE094ED0C
:1055D000040AB4EEE90AF1EE10FA02D294ED040ADC
:1055E00001E0B0EE690AF0EE409A94ED020AD4EDC3
:1055F000050A78EEE00A20EE200A80EE09BA3BEEBA
:10560000A90A30EE0B8A94ED040AB1EE400AB4EE1A
:10561000C80AF1EE10FA04DD94ED040AB1EE400A76
:105620000BE094ED040AB4EEC80AF1EE10FA02D2CF
:1056300094ED040A01E0B0EE480AB0EE408A94ED21
:10564000030AB5EEC00AF1EE10FA26DD94ED060A63
:1056500038EE400AC0EE09AA94ED030AB4EEEA0A55
:10566000F1EE10FA08D294ED060AD4ED030A00EE2A
:10567000890AB0EE408A10E094ED030AB1EE400AC8
:10568000B4EEEA0AF1EE10FA07DD94ED060AD4ED65
:10569000030A00EEC90AB0EE408AC4ED079A84ED11
:1056A000068AC4ED058AB0EE480ABDEC088B70BDD1
:1056B0000000000000003442B0EE401A40F8F41F31
:1056C00042608360DFED681AB0EE610A80ED060A81
:1056D00080ED070A80ED080AF438704710B5012103
:1056E0006248FDF723F801206149087001216148F3
:1056F000FDF71CF801216048FDF718F801205F490B
:10570000087010BD5E4A1288FF2A10DC00F5927006
:10571000438A02681A440260838A42681A444260DB
:10572000C38A82681A448260A0F592701CE000F57A
:1057300092700268C2F30F2282814268C2F30F2284
:10574000C2818268C2F30F220282A0F592704D4A94
:10575000B2F860204B4BA3F864200022474B1A702C
:10576000424B5A639A63DA63454A1288521C444B8F
:105770001A8070470EB5444AD0F8F410914202D115
:105780009FED420A0CE0B0F83611B0F83021891ACA
:1057900000EE101AB8EEC00AD0ED430A20EE200A3F
:1057A0008DED000A384AD0F8F810914202D19FEDF1
:1057B000370A0CE0B0F83811B0F83221891A00EE3F
:1057C000101AB8EEC00AD0ED440A20EE200A8DED82
:1057D000010A2D4AD0F8FC10914202D19FED2B0A0C
:1057E0000CE0B0F83A11B0F83421891A00EE101A22
:1057F000B8EEC00AD0ED450A20EE200A8DED020A6F
:105800009DED000ADDED010A9DED021A0EBD00F5C9
:105810008670428D838CD21A00EE102AB8EEC00A30
:10582000D0ED000A20EE200A81ED000A828DC38CA3
:10583000D21A00EE102AB8EEC00AD0ED010A20EE0E
:10584000200A81ED010AC28D038DD21A00EE102AC2
:10585000B8EEC00AD0ED020AA0F5867020EE200A4C
:1058600081ED020A70477047510A253D0000014052
:1058700046000020000C004000080040EC00002022
:105880002801002064080020C7CFFFFF00000000AF
:1058900010B52DED068B82B00446B0EE408AF0EED6
:1058A000608AB0EE419ABDEEC90A10EE100A00B24D
:1058B000FFF7F8FB8DED000ACDED010A9DED000A22
:1058C000F0EE409A9DED010AB0EE40AA9FEDFE0A6F
:1058D00028EE800AFD48D0ED000A80EE201AF0EE96
:1058E000418A9FEDF90A28EE000AD0ED000A80EE09
:1058F000201AB0EE418A28EEA90A08EE4A0AF448B6
:1059000080ED000A28EE8A0A08EE290AF14880EDA7
:10591000000A90ED000AF04880ED000AEC4890ED96
:10592000000ADFEDEE0A20EE200AEA48D0ED000A78
:10593000B6EE001A01EE600AE94880ED000AE4487C
:1059400090ED000ADFEDE70A20EE200AE148D0EDF5
:10595000000AB6EE001A01EE600AE34880ED000A84
:10596000DD4890ED000AB5EEC00AF1EE10FA01DD57
:10597000012000E00020DA4991ED000AB5EEC00AEE
:10598000F1EE10FA01DD012100E0002100EB410001
:10599000D54991ED000AB5EEC00AF1EE10FA01DD2D
:1059A000012100E0002100EB8100D0490870084689
:1059B0000078072876D2DFE800F07576EF04EEF085
:1059C000EC00C74890ED000AC94880ED000AC248C3
:1059D00090ED000AC74880ED000AC54890ED000A26
:1059E000F7EE000A30EEC00AC248D0ED000A30EEF1
:1059F000600AF6EE000A20EE200ABF4880ED000A99
:105A000090ED000AB5EEC00AF1EE10FA29D2B848BE
:105A100090ED000AB748D0ED000A30EE200AF7EE0C
:105A2000000A80EE801AB54880ED001AB04890ED6B
:105A3000000AB248D0ED000A20EE200AAC4880ED02
:105A4000000AAC4890ED000AAC48D0ED000A20EE08
:105A5000200AA84880ED000A9FEDA90AA64880ED1B
:105A6000000AA34890ED000AA248D0ED000A30EEEB
:105A7000200AA148D0ED000A30EE200AA14880EDAE
:105A8000000A9C4890ED000A9B48D0ED000A30EED9
:105A9000200A9D4880ED000A974890ED000A9B4837
:105AA00080ED000A6FE28E4890ED000AB1EE400AE8
:105AB0008F4880ED000A8C4890ED000AB1EE400A54
:105AC0008C4880ED000A8A4890ED000AF7EE000A43
:105AD00030EEC00A8748D0ED000A30EE600AF6EEDC
